:020000040000FA
:0620000007EF10F01200D2
:0A2008002A82BFED3FF0E3EF3FF046
:1020180000101010101010100018181818181818A0
:10202800001C1C1C1C1C1C1C001E1E1E1E1E1E1E12
:10203800001F1F1F1F1F1F1F000004021F02040094
:10204800000004081F181410000E0E0F1F040A11B8
:0E2058000031323334353637383945304300E5
:107F4700FFFF20FF01E803CDEC3FF0B2EC3FF0F27A
:107F57008E02EC10F0ACEF3FF007EF10F0D59ED596
:107F67008CD59AD596D580D582D584D768D10ED6AB
:107F77006EF28AD58E12000600F2A4C5EF3FF0C755
:107F8700EF3FF0CBEF3FF0F294D768D10ED66E2AD1
:107F9700921100000E896E000E8A6E000E8B6E0025
:107FA7000E8C6E000E8D6E9268936894680C0E9519
:107FB7006E000E966E070EB46E0F0EC16E1200475E
:107FC7000EF66E7F0EF76E000EF86E00EE23F010C1
:107FD700EE07F00900F5CFEEFFE550E150FAE100BA
:107FE700EE01F0220EEE6AE806FDE12A902A9200E1
:097FF7000EF86E0001A7EF3FF047
:020000040020DA
:08000000FFFFFFFFFFFFFFFF00
:020000040030CA
:0E000000240E3F1EFF8181FF0FC00FE00F4056
:00000001FF
